{
  "_format": "hh-sol-artifact-1",
  "contractName": "LookUpContract",
  "sourceName": "contracts/LookUpContract.sol",
  "abi": [
    {
      "anonymous": false,
      "inputs": [
        {
          "indexed": false,
          "internalType": "address",
          "name": "donor",
          "type": "address"
        },
        {
          "indexed": false,
          "internalType": "uint256",
          "name": "amount",
          "type": "uint256"
        }
      ],
      "name": "DonationReceived",
      "type": "event"
    },
    {
      "anonymous": false,
      "inputs": [
        {
          "indexed": true,
          "internalType": "uint256",
          "name": "id",
          "type": "uint256"
        },
        {
          "indexed": true,
          "internalType": "address",
          "name": "owner",
          "type": "address"
        },
        {
          "indexed": true,
          "internalType": "string",
          "name": "token",
          "type": "string"
        }
      ],
      "name": "ERC20TokenListed",
      "type": "event"
    },
    {
      "inputs": [],
      "name": "_donationIndex",
      "outputs": [
        {
          "internalType": "uint256",
          "name": "",
          "type": "uint256"
        }
      ],
      "stateMutability": "view",
      "type": "function"
    },
    {
      "inputs": [],
      "name": "_tokenIndex",
      "outputs": [
        {
          "internalType": "uint256",
          "name": "",
          "type": "uint256"
        }
      ],
      "stateMutability": "view",
      "type": "function"
    },
    {
      "inputs": [
        {
          "internalType": "address",
          "name": "_owner",
          "type": "address"
        },
        {
          "internalType": "string",
          "name": "_tokenSupply",
          "type": "string"
        },
        {
          "internalType": "string",
          "name": "_tokenName",
          "type": "string"
        },
        {
          "internalType": "string",
          "name": "_tokenSymbol",
          "type": "string"
        },
        {
          "internalType": "string",
          "name": "_tokenAddress",
          "type": "string"
        },
        {
          "internalType": "string",
          "name": "_tokenTransactionHash",
          "type": "string"
        },
        {
          "internalType": "string",
          "name": "_tokenCreatedDate",
          "type": "string"
        }
      ],
      "name": "createERC20Token",
      "outputs": [
        {
          "internalType": "uint256",
          "name": "",
          "type": "uint256"
        },
        {
          "internalType": "address",
          "name": "",
          "type": "address"
        },
        {
          "internalType": "string",
          "name": "",
          "type": "string"
        },
        {
          "internalType": "string",
          "name": "",
          "type": "string"
        },
        {
          "internalType": "string",
          "name": "",
          "type": "string"
        },
        {
          "internalType": "string",
          "name": "",
          "type": "string"
        }
      ],
      "stateMutability": "payable",
      "type": "function"
    },
    {
      "inputs": [],
      "name": "donate",
      "outputs": [],
      "stateMutability": "payable",
      "type": "function"
    },
    {
      "inputs": [],
      "name": "getContractBalance",
      "outputs": [
        {
          "internalType": "uint256",
          "name": "",
          "type": "uint256"
        }
      ],
      "stateMutability": "view",
      "type": "function"
    },
    {
      "inputs": [],
      "name": "getDonations",
      "outputs": [
        {
          "components": [
            {
              "internalType": "uint256",
              "name": "donationID",
              "type": "uint256"
            },
            {
              "internalType": "address",
              "name": "donor",
              "type": "address"
            },
            {
              "internalType": "uint256",
              "name": "fund",
              "type": "uint256"
            }
          ],
          "internalType": "struct LookUpContract.Donation[]",
          "name": "",
          "type": "tuple[]"
        }
      ],
      "stateMutability": "view",
      "type": "function"
    },
    {
      "inputs": [
        {
          "internalType": "uint256",
          "name": "_tokenId",
          "type": "uint256"
        }
      ],
      "name": "getERC20Token",
      "outputs": [
        {
          "internalType": "uint256",
          "name": "",
          "type": "uint256"
        },
        {
          "internalType": "address",
          "name": "",
          "type": "address"
        },
        {
          "internalType": "string",
          "name": "",
          "type": "string"
        },
        {
          "internalType": "string",
          "name": "",
          "type": "string"
        },
        {
          "internalType": "string",
          "name": "",
          "type": "string"
        },
        {
          "internalType": "string",
          "name": "",
          "type": "string"
        },
        {
          "internalType": "string",
          "name": "",
          "type": "string"
        },
        {
          "internalType": "string",
          "name": "",
          "type": "string"
        }
      ],
      "stateMutability": "view",
      "type": "function"
    },
    {
      "inputs": [],
      "name": "getERC20TokenListed",
      "outputs": [
        {
          "components": [
            {
              "internalType": "uint256",
              "name": "tokenId",
              "type": "uint256"
            },
            {
              "internalType": "address",
              "name": "owner",
              "type": "address"
            },
            {
              "internalType": "string",
              "name": "tokenSupply",
              "type": "string"
            },
            {
              "internalType": "string",
              "name": "tokenName",
              "type": "string"
            },
            {
              "internalType": "string",
              "name": "tokenSymbol",
              "type": "string"
            },
            {
              "internalType": "string",
              "name": "tokenAddress",
              "type": "string"
            },
            {
              "internalType": "string",
              "name": "tokenTransactionHash",
              "type": "string"
            },
            {
              "internalType": "string",
              "name": "tokenCreatedDate",
              "type": "string"
            }
          ],
          "internalType": "struct LookUpContract.ERC20Token[]",
          "name": "",
          "type": "tuple[]"
        }
      ],
      "stateMutability": "view",
      "type": "function"
    },
    {
      "inputs": [],
      "name": "getERC20TokenListingpRICE",
      "outputs": [
        {
          "internalType": "uint256",
          "name": "",
          "type": "uint256"
        }
      ],
      "stateMutability": "view",
      "type": "function"
    },
    {
      "inputs": [
        {
          "internalType": "address",
          "name": "_user",
          "type": "address"
        }
      ],
      "name": "getUserERC20Tokens",
      "outputs": [
        {
          "components": [
            {
              "internalType": "uint256",
              "name": "tokenId",
              "type": "uint256"
            },
            {
              "internalType": "address",
              "name": "owner",
              "type": "address"
            },
            {
              "internalType": "string",
              "name": "tokenSupply",
              "type": "string"
            },
            {
              "internalType": "string",
              "name": "tokenName",
              "type": "string"
            },
            {
              "internalType": "string",
              "name": "tokenSymbol",
              "type": "string"
            },
            {
              "internalType": "string",
              "name": "tokenAddress",
              "type": "string"
            },
            {
              "internalType": "string",
              "name": "tokenTransactionHash",
              "type": "string"
            },
            {
              "internalType": "string",
              "name": "tokenCreatedDate",
              "type": "string"
            }
          ],
          "internalType": "struct LookUpContract.ERC20Token[]",
          "name": "",
          "type": "tuple[]"
        }
      ],
      "stateMutability": "view",
      "type": "function"
    },
    {
      "inputs": [],
      "name": "listingPrice",
      "outputs": [
        {
          "internalType": "uint256",
          "name": "",
          "type": "uint256"
        }
      ],
      "stateMutability": "view",
      "type": "function"
    },
    {
      "inputs": [
        {
          "internalType": "uint256",
          "name": "_listingPrice",
          "type": "uint256"
        },
        {
          "internalType": "address",
          "name": "owner",
          "type": "address"
        }
      ],
      "name": "updateListingPrice",
      "outputs": [],
      "stateMutability": "payable",
      "type": "function"
    },
    {
      "inputs": [],
      "name": "withdraw",
      "outputs": [],
      "stateMutability": "nonpayable",
      "type": "function"
    }
  ],
  "bytecode": "0x6080604052738f81f30aab61279cd48075c632288fde95c6f9646000806101000a81548173ffffffffffffffffffffffffffffffffffffffff021916908373ffffffffffffffffffffffffffffffffffffffff1602179055506658d15e1762800060015534801561006f57600080fd5b506127438061007f6000396000f3fe6080604052600436106100c25760003560e01c8063a21854771161007f578063b5c6e21f11610059578063b5c6e21f1461025c578063c78f19f914610287578063e25f8416146102b2578063ed88c68e146102dd576100c2565b8063a2185477146101bf578063a581889a146101fc578063afbc710214610231576100c2565b80630fbf0e31146100c75780631ec4a8b51461010b5780633ccfd60b146101365780634e1181a11461014d5780636f9fb98a1461017857806380cad5a6146101a3575b600080fd5b3480156100d357600080fd5b506100ee60048036038101906100e99190611cd9565b6102e7565b60405161010298979695949392919061233f565b60405180910390f35b34801561011757600080fd5b50610120610726565b60405161012d91906122a7565b60405180910390f35b34801561014257600080fd5b5061014b61072c565b005b34801561015957600080fd5b5061016261086c565b60405161016f9190612205565b60405180910390f35b34801561018457600080fd5b5061018d610d72565b60405161019a91906122a7565b60405180910390f35b6101bd60048036038101906101b89190611d02565b610e09565b005b3480156101cb57600080fd5b506101e660048036038101906101e19190611b82565b610f30565b6040516101f39190612205565b60405180910390f35b61021660048036038101906102119190611bab565b611557565b604051610228969594939291906122c2565b60405180910390f35b34801561023d57600080fd5b506102466116f6565b60405161025391906122a7565b60405180910390f35b34801561026857600080fd5b50610271611700565b60405161027e91906122a7565b60405180910390f35b34801561029357600080fd5b5061029c611706565b6040516102a991906122a7565b60405180910390f35b3480156102be57600080fd5b506102c761170c565b6040516102d491906121e3565b60405180910390f35b6102e56118af565b005b6000806060806060806060806000600260008b815260200190815260200160002060405180610100016040529081600082015481526020016001820160009054906101000a900473ffffffffffffffffffffffffffffffffffffffff1673ffffffffffffffffffffffffffffffffffffffff1673ffffffffffffffffffffffffffffffffffffffff168152602001600282018054610384906125c6565b80601f01602080910402602001604051908101604052809291908181526020018280546103b0906125c6565b80156103fd5780601f106103d2576101008083540402835291602001916103fd565b820191906000526020600020905b8154815290600101906020018083116103e057829003601f168201915b50505050508152602001600382018054610416906125c6565b80601f0160208091040260200160405190810160405280929190818152602001828054610442906125c6565b801561048f5780601f106104645761010080835404028352916020019161048f565b820191906000526020600020905b81548152906001019060200180831161047257829003601f168201915b505050505081526020016004820180546104a8906125c6565b80601f01602080910402602001604051908101604052809291908181526020018280546104d4906125c6565b80156105215780601f106104f657610100808354040283529160200191610521565b820191906000526020600020905b81548152906001019060200180831161050457829003601f168201915b5050505050815260200160058201805461053a906125c6565b80601f0160208091040260200160405190810160405280929190818152602001828054610566906125c6565b80156105b35780601f10610588576101008083540402835291602001916105b3565b820191906000526020600020905b81548152906001019060200180831161059657829003601f168201915b505050505081526020016006820180546105cc906125c6565b80601f01602080910402602001604051908101604052809291908181526020018280546105f8906125c6565b80156106455780601f1061061a57610100808354040283529160200191610645565b820191906000526020600020905b81548152906001019060200180831161062857829003601f168201915b5050505050815260200160078201805461065e906125c6565b80601f016020809104026020016040519081016040528092919081815260200182805461068a906125c6565b80156106d75780601f106106ac576101008083540402835291602001916106d7565b820191906000526020600020905b8154815290600101906020018083116106ba57829003601f168201915b5050505050815250509050806000015181602001518260600151836040015184608001518560a001518660c001518760e001519850985098509850985098509850985050919395975091939597565b60055481565b60008054906101000a900473ffffffffffffffffffffffffffffffffffffffff1673ffffffffffffffffffffffffffffffffffffffff163373ffffffffffffffffffffffffffffffffffffffff16146107ba576040517f08c379a00000000000000000000000000000000000000000000000000000000081526004016107b190612247565b60405180910390fd5b600047905060008111610802576040517f08c379a00000000000000000000000000000000000000000000000000000000081526004016107f990612227565b60405180910390fd5b60008054906101000a900473ffffffffffffffffffffffffffffffffffffffff1673ffffffffffffffffffffffffffffffffffffffff166108fc829081150290604051600060405180830381858888f19350505050158015610868573d6000803e3d6000fd5b5050565b6060600060045490506000808267ffffffffffffffff8111156108b8577f4e487b7100000000000000000000000000000000000000000000000000000000600052604160045260246000fd5b6040519080825280602002602001820160405280156108f157816020015b6108de6119bb565b8152602001906001900390816108d65790505b50905060005b83811015610d6857600060018261090e91906124f2565b905060006002600083815260200190815260200160002090508060405180610100016040529081600082015481526020016001820160009054906101000a900473ffffffffffffffffffffffffffffffffffffffff1673ffffffffffffffffffffffffffffffffffffffff1673ffffffffffffffffffffffffffffffffffffffff1681526020016002820180546109a4906125c6565b80601f01602080910402602001604051908101604052809291908181526020018280546109d0906125c6565b8015610a1d5780601f106109f257610100808354040283529160200191610a1d565b820191906000526020600020905b815481529060010190602001808311610a0057829003601f168201915b50505050508152602001600382018054610a36906125c6565b80601f0160208091040260200160405190810160405280929190818152602001828054610a62906125c6565b8015610aaf5780601f10610a8457610100808354040283529160200191610aaf565b820191906000526020600020905b815481529060010190602001808311610a9257829003601f168201915b50505050508152602001600482018054610ac8906125c6565b80601f0160208091040260200160405190810160405280929190818152602001828054610af4906125c6565b8015610b415780601f10610b1657610100808354040283529160200191610b41565b820191906000526020600020905b815481529060010190602001808311610b2457829003601f168201915b50505050508152602001600582018054610b5a906125c6565b80601f0160208091040260200160405190810160405280929190818152602001828054610b86906125c6565b8015610bd35780601f10610ba857610100808354040283529160200191610bd3565b820191906000526020600020905b815481529060010190602001808311610bb657829003601f168201915b50505050508152602001600682018054610bec906125c6565b80601f0160208091040260200160405190810160405280929190818152602001828054610c18906125c6565b8015610c655780601f10610c3a57610100808354040283529160200191610c65565b820191906000526020600020905b815481529060010190602001808311610c4857829003601f168201915b50505050508152602001600782018054610c7e906125c6565b80601f0160208091040260200160405190810160405280929190818152602001828054610caa906125c6565b8015610cf75780601f10610ccc57610100808354040283529160200191610cf7565b820191906000526020600020905b815481529060010190602001808311610cda57829003601f168201915b505050505081525050848681518110610d39577f4e487b7100000000000000000000000000000000000000000000000000000000600052603260045260246000fd5b6020026020010181905250600185610d5191906124f2565b945050508080610d60906125f8565b9150506108f7565b5080935050505090565b60008060009054906101000a900473ffffffffffffffffffffffffffffffffffffffff1673ffffffffffffffffffffffffffffffffffffffff163373ffffffffffffffffffffffffffffffffffffffff1614610e03576040517f08c379a0000000000000000000000000000000000000000000000000000000008152600401610dfa90612247565b60405180910390fd5b47905090565b60008054906101000a900473ffffffffffffffffffffffffffffffffffffffff1673ffffffffffffffffffffffffffffffffffffffff163373ffffffffffffffffffffffffffffffffffffffff1614610e97576040517f08c379a0000000000000000000000000000000000000000000000000000000008152600401610e8e90612247565b60405180910390fd5b8073ffffffffffffffffffffffffffffffffffffffff1660008054906101000a900473ffffffffffffffffffffffffffffffffffffffff1673ffffffffffffffffffffffffffffffffffffffff1614610f25576040517f08c379a0000000000000000000000000000000000000000000000000000000008152600401610f1c90612267565b60405180910390fd5b816001819055505050565b60606000600454905060008060005b83811015610fe0578573ffffffffffffffffffffffffffffffffffffffff1660026000600184610f6f91906124f2565b815260200190815260200160002060010160009054906101000a900473ffffffffffffffffffffffffffffffffffffffff1673ffffffffffffffffffffffffffffffffffffffff161415610fcd57600183610fca91906124f2565b92505b8080610fd8906125f8565b915050610f3f565b5060008267ffffffffffffffff811115611023577f4e487b7100000000000000000000000000000000000000000000000000000000600052604160045260246000fd5b60405190808252806020026020018201604052801561105c57816020015b6110496119bb565b8152602001906001900390816110415790505b50905060005b8481101561154a578673ffffffffffffffffffffffffffffffffffffffff166002600060018461109291906124f2565b815260200190815260200160002060010160009054906101000a900473ffffffffffffffffffffffffffffffffffffffff1673ffffffffffffffffffffffffffffffffffffffff1614156115375760006001826110ef91906124f2565b905060006002600083815260200190815260200160002090508060405180610100016040529081600082015481526020016001820160009054906101000a900473ffffffffffffffffffffffffffffffffffffffff1673ffffffffffffffffffffffffffffffffffffffff1673ffffffffffffffffffffffffffffffffffffffff168152602001600282018054611185906125c6565b80601f01602080910402602001604051908101604052809291908181526020018280546111b1906125c6565b80156111fe5780601f106111d3576101008083540402835291602001916111fe565b820191906000526020600020905b8154815290600101906020018083116111e157829003601f168201915b50505050508152602001600382018054611217906125c6565b80601f0160208091040260200160405190810160405280929190818152602001828054611243906125c6565b80156112905780601f1061126557610100808354040283529160200191611290565b820191906000526020600020905b81548152906001019060200180831161127357829003601f168201915b505050505081526020016004820180546112a9906125c6565b80601f01602080910402602001604051908101604052809291908181526020018280546112d5906125c6565b80156113225780601f106112f757610100808354040283529160200191611322565b820191906000526020600020905b81548152906001019060200180831161130557829003601f168201915b5050505050815260200160058201805461133b906125c6565b80601f0160208091040260200160405190810160405280929190818152602001828054611367906125c6565b80156113b45780601f10611389576101008083540402835291602001916113b4565b820191906000526020600020905b81548152906001019060200180831161139757829003601f168201915b505050505081526020016006820180546113cd906125c6565b80601f01602080910402602001604051908101604052809291908181526020018280546113f9906125c6565b80156114465780601f1061141b57610100808354040283529160200191611446565b820191906000526020600020905b81548152906001019060200180831161142957829003601f168201915b5050505050815260200160078201805461145f906125c6565b80601f016020809104026020016040519081016040528092919081815260200182805461148b906125c6565b80156114d85780601f106114ad576101008083540402835291602001916114d8565b820191906000526020600020905b8154815290600101906020018083116114bb57829003601f168201915b50505050508152505084868151811061151a577f4e487b7100000000000000000000000000000000000000000000000000000000600052603260045260246000fd5b602002602001018190525060018561153291906124f2565b945050505b8080611542906125f8565b915050611062565b5080945050505050919050565b60008060608060608060046000815480929190611573906125f8565b91905055506000600454905060006002600083815260200190815260200160002090508181600001819055508e8160010160006101000a81548173ffffffffffffffffffffffffffffffffffffffff021916908373ffffffffffffffffffffffffffffffffffffffff1602179055508d8160020190805190602001906115fa929190611a16565b508c816003019080519060200190611613929190611a16565b508b81600401908051906020019061162c929190611a16565b508a816005019080519060200190611645929190611a16565b508981600601908051906020019061165e929190611a16565b5088816007019080519060200190611677929190611a16565b508a60405161168691906121a3565b60405180910390208f73ffffffffffffffffffffffffffffffffffffffff16837f72e070645b8753b7561512bdcd5680da44ba132de789fec82d235d43ec008d9b60405160405180910390a4818f8e8e8e8e97509750975097509750975050509750975097509750975097915050565b6000600154905090565b60045481565b60015481565b6060600060055490506000808267ffffffffffffffff811115611758577f4e487b7100000000000000000000000000000000000000000000000000000000600052604160045260246000fd5b60405190808252806020026020018201604052801561179157816020015b61177e611a9c565b8152602001906001900390816117765790505b50905060005b838110156118a55760006001826117ae91906124f2565b9050600060036000838152602001908152602001600020905080604051806060016040529081600082015481526020016001820160009054906101000a900473ffffffffffffffffffffffffffffffffffffffff1673ffffffffffffffffffffffffffffffffffffffff1673ffffffffffffffffffffffffffffffffffffffff168152602001600282015481525050848681518110611876577f4e487b7100000000000000000000000000000000000000000000000000000000600052603260045260246000fd5b602002602001018190525060018561188e91906124f2565b94505050808061189d906125f8565b915050611797565b5080935050505090565b60003410156118f3576040517f08c379a00000000000000000000000000000000000000000000000000000000081526004016118ea90612287565b60405180910390fd5b60056000815480929190611906906125f8565b9190505550600060055490506000600360008381526020019081526020016000209050818160000181905550338160010160006101000a81548173ffffffffffffffffffffffffffffffffffffffff021916908373ffffffffffffffffffffffffffffffffffffffff1602179055503481600201819055507f264f630d9efa0d07053a31163641d9fcc0adafc9d9e76f1c37c2ce3a558d2c5233346040516119af9291906121ba565b60405180910390a15050565b60405180610100016040528060008152602001600073ffffffffffffffffffffffffffffffffffffffff1681526020016060815260200160608152602001606081526020016060815260200160608152602001606081525090565b828054611a22906125c6565b90600052602060002090601f016020900481019282611a445760008555611a8b565b82601f10611a5d57805160ff1916838001178555611a8b565b82800160010185558215611a8b579182015b82811115611a8a578251825591602001919060010190611a6f565b5b509050611a989190611ad3565b5090565b604051806060016040528060008152602001600073ffffffffffffffffffffffffffffffffffffffff168152602001600081525090565b5b80821115611aec576000816000905550600101611ad4565b5090565b6000611b03611afe84612418565b6123e7565b905082815260208101848484011115611b1b57600080fd5b611b26848285612584565b509392505050565b600081359050611b3d816126df565b92915050565b600082601f830112611b5457600080fd5b8135611b64848260208601611af0565b91505092915050565b600081359050611b7c816126f6565b92915050565b600060208284031215611b9457600080fd5b6000611ba284828501611b2e565b91505092915050565b600080600080600080600060e0888a031215611bc657600080fd5b6000611bd48a828b01611b2e565b975050602088013567ffffffffffffffff811115611bf157600080fd5b611bfd8a828b01611b43565b965050604088013567ffffffffffffffff811115611c1a57600080fd5b611c268a828b01611b43565b955050606088013567ffffffffffffffff811115611c4357600080fd5b611c4f8a828b01611b43565b945050608088013567ffffffffffffffff811115611c6c57600080fd5b611c788a828b01611b43565b93505060a088013567ffffffffffffffff811115611c9557600080fd5b611ca18a828b01611b43565b92505060c088013567ffffffffffffffff811115611cbe57600080fd5b611cca8a828b01611b43565b91505092959891949750929550565b600060208284031215611ceb57600080fd5b6000611cf984828501611b6d565b91505092915050565b60008060408385031215611d1557600080fd5b6000611d2385828601611b6d565b9250506020611d3485828601611b2e565b9150509250929050565b6000611d4a8383612070565b60608301905092915050565b6000611d6283836120b2565b905092915050565b611d7381612548565b82525050565b611d8281612548565b82525050565b6000611d9382612468565b611d9d81856124a3565b9350611da883612448565b8060005b83811015611dd9578151611dc08882611d3e565b9750611dcb83612489565b925050600181019050611dac565b5085935050505092915050565b6000611df182612473565b611dfb81856124b4565b935083602082028501611e0d85612458565b8060005b85811015611e495784840389528151611e2a8582611d56565b9450611e3583612496565b925060208a01995050600181019050611e11565b50829750879550505050505092915050565b6000611e668261247e565b611e7081856124c5565b9350611e80818560208601612593565b611e89816126ce565b840191505092915050565b6000611e9f8261247e565b611ea981856124d6565b9350611eb9818560208601612593565b611ec2816126ce565b840191505092915050565b6000611ed88261247e565b611ee281856124e7565b9350611ef2818560208601612593565b80840191505092915050565b6000611f0b6013836124d6565b91507f4e6f7468696e6720746f207769746864726177000000000000000000000000006000830152602082019050919050565b6000611f4b6021836124d6565b91507f4f6e6c79206f776e65722063616e2063616c6c20746869732066756e6374696f60008301527f6e000000000000000000000000000000000000000000000000000000000000006020830152604082019050919050565b6000611fb16021836124d6565b91507f4f6e6c79206f776e65722063616e20757064617465206c697374696e6720666560008301527f65000000000000000000000000000000000000000000000000000000000000006020830152604082019050919050565b60006120176026836124d6565b91507f446f6e61746520616d6f756e742073686f756c6420626520677265617465722060008301527f7468616e203000000000000000000000000000000000000000000000000000006020830152604082019050919050565b6060820160008201516120866000850182612185565b5060208201516120996020850182611d6a565b5060408201516120ac6040850182612185565b50505050565b6000610100830160008301516120cb6000860182612185565b5060208301516120de6020860182611d6a565b50604083015184820360408601526120f68282611e5b565b915050606083015184820360608601526121108282611e5b565b9150506080830151848203608086015261212a8282611e5b565b91505060a083015184820360a08601526121448282611e5b565b91505060c083015184820360c086015261215e8282611e5b565b91505060e083015184820360e08601526121788282611e5b565b9150508091505092915050565b61218e8161257a565b82525050565b61219d8161257a565b82525050565b60006121af8284611ecd565b915081905092915050565b60006040820190506121cf6000830185611d79565b6121dc6020830184612194565b9392505050565b600060208201905081810360008301526121fd8184611d88565b905092915050565b6000602082019050818103600083015261221f8184611de6565b905092915050565b6000602082019050818103600083015261224081611efe565b9050919050565b6000602082019050818103600083015261226081611f3e565b9050919050565b6000602082019050818103600083015261228081611fa4565b9050919050565b600060208201905081810360008301526122a08161200a565b9050919050565b60006020820190506122bc6000830184612194565b92915050565b600060c0820190506122d76000830189612194565b6122e46020830188611d79565b81810360408301526122f68187611e94565b9050818103606083015261230a8186611e94565b9050818103608083015261231e8185611e94565b905081810360a08301526123328184611e94565b9050979650505050505050565b600061010082019050612355600083018b612194565b612362602083018a611d79565b81810360408301526123748189611e94565b905081810360608301526123888188611e94565b9050818103608083015261239c8187611e94565b905081810360a08301526123b08186611e94565b905081810360c08301526123c48185611e94565b905081810360e08301526123d88184611e94565b90509998505050505050505050565b6000604051905081810181811067ffffffffffffffff8211171561240e5761240d61269f565b5b8060405250919050565b600067ffffffffffffffff8211156124335761243261269f565b5b601f19601f8301169050602081019050919050565b6000819050602082019050919050565b6000819050602082019050919050565b600081519050919050565b600081519050919050565b600081519050919050565b6000602082019050919050565b6000602082019050919050565b600082825260208201905092915050565b600082825260208201905092915050565b600082825260208201905092915050565b600082825260208201905092915050565b600081905092915050565b60006124fd8261257a565b91506125088361257a565b9250827fffffffffffffffffffffffffffffffffffffffffffffffffffffffffffffffff0382111561253d5761253c612641565b5b828201905092915050565b60006125538261255a565b9050919050565b600073ffffffffffffffffffffffffffffffffffffffff82169050919050565b6000819050919050565b82818337600083830152505050565b60005b838110156125b1578082015181840152602081019050612596565b838111156125c0576000848401525b50505050565b600060028204905060018216806125de57607f821691505b602082108114156125f2576125f1612670565b5b50919050565b60006126038261257a565b91507fffffffffffffffffffffffffffffffffffffffffffffffffffffffffffffffff82141561263657612635612641565b5b600182019050919050565b7f4e487b7100000000000000000000000000000000000000000000000000000000600052601160045260246000fd5b7f4e487b7100000000000000000000000000000000000000000000000000000000600052602260045260246000fd5b7f4e487b7100000000000000000000000000000000000000000000000000000000600052604160045260246000fd5b6000601f19601f8301169050919050565b6126e881612548565b81146126f357600080fd5b50565b6126ff8161257a565b811461270a57600080fd5b5056fea2646970667358221220826cacd1f28a3c8bf0ac4ed342b7476336a44979bcdb72570273b3c6ef5512f964736f6c63430008000033",
  "linkReferences": {},
  "deployedLinkReferences": {}
}