{
  "contractName": "LookUpContract",
  "abi": [
    {
      "anonymous": false,
      "inputs": [
        {
          "indexed": true,
          "internalType": "address",
          "name": "donor",
          "type": "address"
        },
        {
          "indexed": false,
          "internalType": "uint256",
          "name": "amount",
          "type": "uint256"
        }
      ],
      "name": "DonationReceived",
      "type": "event"
    },
    {
      "anonymous": false,
      "inputs": [
        {
          "indexed": true,
          "internalType": "uint256",
          "name": "id",
          "type": "uint256"
        },
        {
          "indexed": true,
          "internalType": "address",
          "name": "owner",
          "type": "address"
        },
        {
          "indexed": true,
          "internalType": "string",
          "name": "token",
          "type": "string"
        }
      ],
      "name": "ERC20TokenListed",
      "type": "event"
    },
    {
      "inputs": [],
      "name": "_donationIndex",
      "outputs": [
        {
          "internalType": "uint256",
          "name": "",
          "type": "uint256"
        }
      ],
      "stateMutability": "view",
      "type": "function",
      "constant": true
    },
    {
      "inputs": [],
      "name": "_tokenIndex",
      "outputs": [
        {
          "internalType": "uint256",
          "name": "",
          "type": "uint256"
        }
      ],
      "stateMutability": "view",
      "type": "function",
      "constant": true
    },
    {
      "inputs": [],
      "name": "listingPrice",
      "outputs": [
        {
          "internalType": "uint256",
          "name": "",
          "type": "uint256"
        }
      ],
      "stateMutability": "view",
      "type": "function",
      "constant": true
    },
    {
      "inputs": [
        {
          "internalType": "address",
          "name": "_owner",
          "type": "address"
        },
        {
          "internalType": "string",
          "name": "_tokenSupply",
          "type": "string"
        },
        {
          "internalType": "string",
          "name": "_tokenName",
          "type": "string"
        },
        {
          "internalType": "string",
          "name": "_tokenSymbol",
          "type": "string"
        },
        {
          "internalType": "string",
          "name": "_tokenAddress",
          "type": "string"
        },
        {
          "internalType": "string",
          "name": "_tokenTransactionHash",
          "type": "string"
        },
        {
          "internalType": "string",
          "name": "_tokenCreatedDate",
          "type": "string"
        }
      ],
      "name": "createERC20Token",
      "outputs": [
        {
          "internalType": "uint256",
          "name": "",
          "type": "uint256"
        },
        {
          "internalType": "address",
          "name": "",
          "type": "address"
        },
        {
          "internalType": "string",
          "name": "",
          "type": "string"
        },
        {
          "internalType": "string",
          "name": "",
          "type": "string"
        },
        {
          "internalType": "string",
          "name": "",
          "type": "string"
        },
        {
          "internalType": "string",
          "name": "",
          "type": "string"
        }
      ],
      "stateMutability": "payable",
      "type": "function",
      "payable": true
    },
    {
      "inputs": [],
      "name": "getERC20TokenListed",
      "outputs": [
        {
          "components": [
            {
              "internalType": "uint256",
              "name": "tokenID",
              "type": "uint256"
            },
            {
              "internalType": "address",
              "name": "owner",
              "type": "address"
            },
            {
              "internalType": "string",
              "name": "tokenSupply",
              "type": "string"
            },
            {
              "internalType": "string",
              "name": "tokenName",
              "type": "string"
            },
            {
              "internalType": "string",
              "name": "tokenSymbol",
              "type": "string"
            },
            {
              "internalType": "string",
              "name": "tokenAddress",
              "type": "string"
            },
            {
              "internalType": "string",
              "name": "tokenTransactionHash",
              "type": "string"
            },
            {
              "internalType": "string",
              "name": "tokenCreatedDate",
              "type": "string"
            }
          ],
          "internalType": "struct LookUpContract.ERC20Token[]",
          "name": "",
          "type": "tuple[]"
        }
      ],
      "stateMutability": "view",
      "type": "function",
      "constant": true
    },
    {
      "inputs": [
        {
          "internalType": "uint256",
          "name": "_tokenId",
          "type": "uint256"
        }
      ],
      "name": "getERC20Token",
      "outputs": [
        {
          "internalType": "uint256",
          "name": "",
          "type": "uint256"
        },
        {
          "internalType": "address",
          "name": "",
          "type": "address"
        },
        {
          "internalType": "string",
          "name": "",
          "type": "string"
        },
        {
          "internalType": "string",
          "name": "",
          "type": "string"
        },
        {
          "internalType": "string",
          "name": "",
          "type": "string"
        },
        {
          "internalType": "string",
          "name": "",
          "type": "string"
        },
        {
          "internalType": "string",
          "name": "",
          "type": "string"
        },
        {
          "internalType": "string",
          "name": "",
          "type": "string"
        }
      ],
      "stateMutability": "view",
      "type": "function",
      "constant": true
    },
    {
      "inputs": [
        {
          "internalType": "address",
          "name": "_user",
          "type": "address"
        }
      ],
      "name": "getUserERC20Tokens",
      "outputs": [
        {
          "components": [
            {
              "internalType": "uint256",
              "name": "tokenID",
              "type": "uint256"
            },
            {
              "internalType": "address",
              "name": "owner",
              "type": "address"
            },
            {
              "internalType": "string",
              "name": "tokenSupply",
              "type": "string"
            },
            {
              "internalType": "string",
              "name": "tokenName",
              "type": "string"
            },
            {
              "internalType": "string",
              "name": "tokenSymbol",
              "type": "string"
            },
            {
              "internalType": "string",
              "name": "tokenAddress",
              "type": "string"
            },
            {
              "internalType": "string",
              "name": "tokenTransactionHash",
              "type": "string"
            },
            {
              "internalType": "string",
              "name": "tokenCreatedDate",
              "type": "string"
            }
          ],
          "internalType": "struct LookUpContract.ERC20Token[]",
          "name": "",
          "type": "tuple[]"
        }
      ],
      "stateMutability": "view",
      "type": "function",
      "constant": true
    },
    {
      "inputs": [],
      "name": "getERC20TokenListingPrice",
      "outputs": [
        {
          "internalType": "uint256",
          "name": "",
          "type": "uint256"
        }
      ],
      "stateMutability": "view",
      "type": "function",
      "constant": true
    },
    {
      "inputs": [
        {
          "internalType": "uint256",
          "name": "_listingPrice",
          "type": "uint256"
        },
        {
          "internalType": "address",
          "name": "owner",
          "type": "address"
        }
      ],
      "name": "updateListingPrice",
      "outputs": [],
      "stateMutability": "payable",
      "type": "function",
      "payable": true
    },
    {
      "inputs": [],
      "name": "withdraw",
      "outputs": [],
      "stateMutability": "nonpayable",
      "type": "function"
    },
    {
      "inputs": [],
      "name": "getContractBalance",
      "outputs": [
        {
          "internalType": "uint256",
          "name": "",
          "type": "uint256"
        }
      ],
      "stateMutability": "view",
      "type": "function",
      "constant": true
    },
    {
      "inputs": [],
      "name": "donate",
      "outputs": [],
      "stateMutability": "payable",
      "type": "function",
      "payable": true
    },
    {
      "inputs": [],
      "name": "getAllDonation",
      "outputs": [
        {
          "components": [
            {
              "internalType": "uint256",
              "name": "donationID",
              "type": "uint256"
            },
            {
              "internalType": "address",
              "name": "donor",
              "type": "address"
            },
            {
              "internalType": "uint256",
              "name": "fund",
              "type": "uint256"
            }
          ],
          "internalType": "struct LookUpContract.Donation[]",
          "name": "",
          "type": "tuple[]"
        }
      ],
      "stateMutability": "view",
      "type": "function",
      "constant": true
    }
  ],
  "bytecode": "0x60806040527393ce56e359dfe0e0452816ca742853f96f2ee0ba6000806101000a81548173ffffffffffffffffffffffffffffffffffffffff021916908373ffffffffffffffffffffffffffffffffffffffff1602179055506658d15e1762800060015534801561006f57600080fd5b506127358061007f6000396000f3fe6080604052600436106100c25760003560e01c806380cad5a61161007f578063a581889a11610059578063a581889a14610252578063b5c6e21f14610287578063c78f19f9146102b2578063ed88c68e146102dd576100c2565b806380cad5a6146101ce5780639463c838146101ea578063a218547714610215576100c2565b80630fbf0e31146100c75780631ec4a8b51461010b5780633ccfd60b146101365780634e1181a11461014d57806352e9a1a0146101785780636f9fb98a146101a3575b600080fd5b3480156100d357600080fd5b506100ee60048036038101906100e99190611cf4565b6102e7565b604051610102989796959493929190612331565b60405180910390f35b34801561011757600080fd5b50610120610726565b60405161012d9190612299565b60405180910390f35b34801561014257600080fd5b5061014b61072c565b005b34801561015957600080fd5b5061016261086c565b60405161016f91906121f7565b60405180910390f35b34801561018457600080fd5b5061018d610d72565b60405161019a91906121d5565b60405180910390f35b3480156101af57600080fd5b506101b8610f15565b6040516101c59190612299565b60405180910390f35b6101e860048036038101906101e39190611d1d565b610fb2565b005b3480156101f657600080fd5b506101ff6110d9565b60405161020c9190612299565b60405180910390f35b34801561022157600080fd5b5061023c60048036038101906102379190611b9d565b6110e3565b60405161024991906121f7565b60405180910390f35b61026c60048036038101906102679190611bc6565b61170a565b60405161027e969594939291906122b4565b60405180910390f35b34801561029357600080fd5b5061029c6118a9565b6040516102a99190612299565b60405180910390f35b3480156102be57600080fd5b506102c76118af565b6040516102d49190612299565b60405180910390f35b6102e56118b5565b005b6000806060806060806060806000600260008b815260200190815260200160002060405180610100016040529081600082015481526020016001820160009054906101000a900473ffffffffffffffffffffffffffffffffffffffff1673ffffffffffffffffffffffffffffffffffffffff1673ffffffffffffffffffffffffffffffffffffffff168152602001600282018054610384906125b8565b80601f01602080910402602001604051908101604052809291908181526020018280546103b0906125b8565b80156103fd5780601f106103d2576101008083540402835291602001916103fd565b820191906000526020600020905b8154815290600101906020018083116103e057829003601f168201915b50505050508152602001600382018054610416906125b8565b80601f0160208091040260200160405190810160405280929190818152602001828054610442906125b8565b801561048f5780601f106104645761010080835404028352916020019161048f565b820191906000526020600020905b81548152906001019060200180831161047257829003601f168201915b505050505081526020016004820180546104a8906125b8565b80601f01602080910402602001604051908101604052809291908181526020018280546104d4906125b8565b80156105215780601f106104f657610100808354040283529160200191610521565b820191906000526020600020905b81548152906001019060200180831161050457829003601f168201915b5050505050815260200160058201805461053a906125b8565b80601f0160208091040260200160405190810160405280929190818152602001828054610566906125b8565b80156105b35780601f10610588576101008083540402835291602001916105b3565b820191906000526020600020905b81548152906001019060200180831161059657829003601f168201915b505050505081526020016006820180546105cc906125b8565b80601f01602080910402602001604051908101604052809291908181526020018280546105f8906125b8565b80156106455780601f1061061a57610100808354040283529160200191610645565b820191906000526020600020905b81548152906001019060200180831161062857829003601f168201915b5050505050815260200160078201805461065e906125b8565b80601f016020809104026020016040519081016040528092919081815260200182805461068a906125b8565b80156106d75780601f106106ac576101008083540402835291602001916106d7565b820191906000526020600020905b8154815290600101906020018083116106ba57829003601f168201915b5050505050815250509050806000015181602001518260600151836040015184608001518560a001518660c001518760e001519850985098509850985098509850985050919395975091939597565b60055481565b60008054906101000a900473ffffffffffffffffffffffffffffffffffffffff1673ffffffffffffffffffffffffffffffffffffffff163373ffffffffffffffffffffffffffffffffffffffff16146107ba576040517f08c379a00000000000000000000000000000000000000000000000000000000081526004016107b190612259565b60405180910390fd5b600047905060008111610802576040517f08c379a00000000000000000000000000000000000000000000000000000000081526004016107f990612239565b60405180910390fd5b60008054906101000a900473ffffffffffffffffffffffffffffffffffffffff1673ffffffffffffffffffffffffffffffffffffffff166108fc829081150290604051600060405180830381858888f19350505050158015610868573d6000803e3d6000fd5b5050565b6060600060045490506000808267ffffffffffffffff8111156108b8577f4e487b7100000000000000000000000000000000000000000000000000000000600052604160045260246000fd5b6040519080825280602002602001820160405280156108f157816020015b6108de6119d6565b8152602001906001900390816108d65790505b50905060005b83811015610d6857600060018261090e91906124e4565b905060006002600083815260200190815260200160002090508060405180610100016040529081600082015481526020016001820160009054906101000a900473ffffffffffffffffffffffffffffffffffffffff1673ffffffffffffffffffffffffffffffffffffffff1673ffffffffffffffffffffffffffffffffffffffff1681526020016002820180546109a4906125b8565b80601f01602080910402602001604051908101604052809291908181526020018280546109d0906125b8565b8015610a1d5780601f106109f257610100808354040283529160200191610a1d565b820191906000526020600020905b815481529060010190602001808311610a0057829003601f168201915b50505050508152602001600382018054610a36906125b8565b80601f0160208091040260200160405190810160405280929190818152602001828054610a62906125b8565b8015610aaf5780601f10610a8457610100808354040283529160200191610aaf565b820191906000526020600020905b815481529060010190602001808311610a9257829003601f168201915b50505050508152602001600482018054610ac8906125b8565b80601f0160208091040260200160405190810160405280929190818152602001828054610af4906125b8565b8015610b415780601f10610b1657610100808354040283529160200191610b41565b820191906000526020600020905b815481529060010190602001808311610b2457829003601f168201915b50505050508152602001600582018054610b5a906125b8565b80601f0160208091040260200160405190810160405280929190818152602001828054610b86906125b8565b8015610bd35780601f10610ba857610100808354040283529160200191610bd3565b820191906000526020600020905b815481529060010190602001808311610bb657829003601f168201915b50505050508152602001600682018054610bec906125b8565b80601f0160208091040260200160405190810160405280929190818152602001828054610c18906125b8565b8015610c655780601f10610c3a57610100808354040283529160200191610c65565b820191906000526020600020905b815481529060010190602001808311610c4857829003601f168201915b50505050508152602001600782018054610c7e906125b8565b80601f0160208091040260200160405190810160405280929190818152602001828054610caa906125b8565b8015610cf75780601f10610ccc57610100808354040283529160200191610cf7565b820191906000526020600020905b815481529060010190602001808311610cda57829003601f168201915b505050505081525050848681518110610d39577f4e487b7100000000000000000000000000000000000000000000000000000000600052603260045260246000fd5b6020026020010181905250600185610d5191906124e4565b945050508080610d60906125ea565b9150506108f7565b5080935050505090565b6060600060055490506000808267ffffffffffffffff811115610dbe577f4e487b7100000000000000000000000000000000000000000000000000000000600052604160045260246000fd5b604051908082528060200260200182016040528015610df757816020015b610de4611a31565b815260200190600190039081610ddc5790505b50905060005b83811015610f0b576000600182610e1491906124e4565b9050600060036000838152602001908152602001600020905080604051806060016040529081600082015481526020016001820160009054906101000a900473ffffffffffffffffffffffffffffffffffffffff1673ffffffffffffffffffffffffffffffffffffffff1673ffffffffffffffffffffffffffffffffffffffff168152602001600282015481525050848681518110610edc577f4e487b7100000000000000000000000000000000000000000000000000000000600052603260045260246000fd5b6020026020010181905250600185610ef491906124e4565b945050508080610f03906125ea565b915050610dfd565b5080935050505090565b60008060009054906101000a900473ffffffffffffffffffffffffffffffffffffffff1673ffffffffffffffffffffffffffffffffffffffff163373ffffffffffffffffffffffffffffffffffffffff1614610fa6576040517f08c379a0000000000000000000000000000000000000000000000000000000008152600401610f9d90612259565b60405180910390fd5b60004790508091505090565b60008054906101000a900473ffffffffffffffffffffffffffffffffffffffff1673ffffffffffffffffffffffffffffffffffffffff163373ffffffffffffffffffffffffffffffffffffffff1614611040576040517f08c379a000000000000000000000000000000000000000000000000000000000815260040161103790612259565b60405180910390fd5b8073ffffffffffffffffffffffffffffffffffffffff1660008054906101000a900473ffffffffffffffffffffffffffffffffffffffff1673ffffffffffffffffffffffffffffffffffffffff16146110ce576040517f08c379a00000000000000000000000000000000000000000000000000000000081526004016110c590612279565b60405180910390fd5b816001819055505050565b6000600154905090565b60606000600454905060008060005b83811015611193578573ffffffffffffffffffffffffffffffffffffffff166002600060018461112291906124e4565b815260200190815260200160002060010160009054906101000a900473ffffffffffffffffffffffffffffffffffffffff1673ffffffffffffffffffffffffffffffffffffffff1614156111805760018361117d91906124e4565b92505b808061118b906125ea565b9150506110f2565b5060008267ffffffffffffffff8111156111d6577f4e487b7100000000000000000000000000000000000000000000000000000000600052604160045260246000fd5b60405190808252806020026020018201604052801561120f57816020015b6111fc6119d6565b8152602001906001900390816111f45790505b50905060005b848110156116fd578673ffffffffffffffffffffffffffffffffffffffff166002600060018461124591906124e4565b815260200190815260200160002060010160009054906101000a900473ffffffffffffffffffffffffffffffffffffffff1673ffffffffffffffffffffffffffffffffffffffff1614156116ea5760006001826112a291906124e4565b905060006002600083815260200190815260200160002090508060405180610100016040529081600082015481526020016001820160009054906101000a900473ffffffffffffffffffffffffffffffffffffffff1673ffffffffffffffffffffffffffffffffffffffff1673ffffffffffffffffffffffffffffffffffffffff168152602001600282018054611338906125b8565b80601f0160208091040260200160405190810160405280929190818152602001828054611364906125b8565b80156113b15780601f10611386576101008083540402835291602001916113b1565b820191906000526020600020905b81548152906001019060200180831161139457829003601f168201915b505050505081526020016003820180546113ca906125b8565b80601f01602080910402602001604051908101604052809291908181526020018280546113f6906125b8565b80156114435780601f1061141857610100808354040283529160200191611443565b820191906000526020600020905b81548152906001019060200180831161142657829003601f168201915b5050505050815260200160048201805461145c906125b8565b80601f0160208091040260200160405190810160405280929190818152602001828054611488906125b8565b80156114d55780601f106114aa576101008083540402835291602001916114d5565b820191906000526020600020905b8154815290600101906020018083116114b857829003601f168201915b505050505081526020016005820180546114ee906125b8565b80601f016020809104026020016040519081016040528092919081815260200182805461151a906125b8565b80156115675780601f1061153c57610100808354040283529160200191611567565b820191906000526020600020905b81548152906001019060200180831161154a57829003601f168201915b50505050508152602001600682018054611580906125b8565b80601f01602080910402602001604051908101604052809291908181526020018280546115ac906125b8565b80156115f95780601f106115ce576101008083540402835291602001916115f9565b820191906000526020600020905b8154815290600101906020018083116115dc57829003601f168201915b50505050508152602001600782018054611612906125b8565b80601f016020809104026020016040519081016040528092919081815260200182805461163e906125b8565b801561168b5780601f106116605761010080835404028352916020019161168b565b820191906000526020600020905b81548152906001019060200180831161166e57829003601f168201915b5050505050815250508486815181106116cd577f4e487b7100000000000000000000000000000000000000000000000000000000600052603260045260246000fd5b60200260200101819052506001856116e591906124e4565b945050505b80806116f5906125ea565b915050611215565b5080945050505050919050565b60008060608060608060046000815480929190611726906125ea565b91905055506000600454905060006002600083815260200190815260200160002090508181600001819055508e8160010160006101000a81548173ffffffffffffffffffffffffffffffffffffffff021916908373ffffffffffffffffffffffffffffffffffffffff1602179055508d8160020190805190602001906117ad929190611a68565b508c8160030190805190602001906117c6929190611a68565b508b8160040190805190602001906117df929190611a68565b508a8160050190805190602001906117f8929190611a68565b5089816006019080519060200190611811929190611a68565b508881600701908051906020019061182a929190611a68565b508a60405161183991906121be565b60405180910390208f73ffffffffffffffffffffffffffffffffffffffff16837f72e070645b8753b7561512bdcd5680da44ba132de789fec82d235d43ec008d9b60405160405180910390a4818f8e8e8e8e97509750975097509750975050509750975097509750975097915050565b60045481565b60015481565b60003410156118f9576040517f08c379a00000000000000000000000000000000000000000000000000000000081526004016118f090612219565b60405180910390fd5b6005600081548092919061190c906125ea565b9190505550600060055490506000600360008381526020019081526020016000209050818160000181905550338160010160006101000a81548173ffffffffffffffffffffffffffffffffffffffff021916908373ffffffffffffffffffffffffffffffffffffffff1602179055503481600201819055503373ffffffffffffffffffffffffffffffffffffffff167f264f630d9efa0d07053a31163641d9fcc0adafc9d9e76f1c37c2ce3a558d2c52346040516119ca9190612299565b60405180910390a25050565b60405180610100016040528060008152602001600073ffffffffffffffffffffffffffffffffffffffff1681526020016060815260200160608152602001606081526020016060815260200160608152602001606081525090565b604051806060016040528060008152602001600073ffffffffffffffffffffffffffffffffffffffff168152602001600081525090565b828054611a74906125b8565b90600052602060002090601f016020900481019282611a965760008555611add565b82601f10611aaf57805160ff1916838001178555611add565b82800160010185558215611add579182015b82811115611adc578251825591602001919060010190611ac1565b5b509050611aea9190611aee565b5090565b5b80821115611b07576000816000905550600101611aef565b5090565b6000611b1e611b198461240a565b6123d9565b905082815260208101848484011115611b3657600080fd5b611b41848285612576565b509392505050565b600081359050611b58816126d1565b92915050565b600082601f830112611b6f57600080fd5b8135611b7f848260208601611b0b565b91505092915050565b600081359050611b97816126e8565b92915050565b600060208284031215611baf57600080fd5b6000611bbd84828501611b49565b91505092915050565b600080600080600080600060e0888a031215611be157600080fd5b6000611bef8a828b01611b49565b975050602088013567ffffffffffffffff811115611c0c57600080fd5b611c188a828b01611b5e565b965050604088013567ffffffffffffffff811115611c3557600080fd5b611c418a828b01611b5e565b955050606088013567ffffffffffffffff811115611c5e57600080fd5b611c6a8a828b01611b5e565b945050608088013567ffffffffffffffff811115611c8757600080fd5b611c938a828b01611b5e565b93505060a088013567ffffffffffffffff811115611cb057600080fd5b611cbc8a828b01611b5e565b92505060c088013567ffffffffffffffff811115611cd957600080fd5b611ce58a828b01611b5e565b91505092959891949750929550565b600060208284031215611d0657600080fd5b6000611d1484828501611b88565b91505092915050565b60008060408385031215611d3057600080fd5b6000611d3e85828601611b88565b9250506020611d4f85828601611b49565b9150509250929050565b6000611d65838361208b565b60608301905092915050565b6000611d7d83836120cd565b905092915050565b611d8e8161253a565b82525050565b611d9d8161253a565b82525050565b6000611dae8261245a565b611db88185612495565b9350611dc38361243a565b8060005b83811015611df4578151611ddb8882611d59565b9750611de68361247b565b925050600181019050611dc7565b5085935050505092915050565b6000611e0c82612465565b611e1681856124a6565b935083602082028501611e288561244a565b8060005b85811015611e645784840389528151611e458582611d71565b9450611e5083612488565b925060208a01995050600181019050611e2c565b50829750879550505050505092915050565b6000611e8182612470565b611e8b81856124b7565b9350611e9b818560208601612585565b611ea4816126c0565b840191505092915050565b6000611eba82612470565b611ec481856124c8565b9350611ed4818560208601612585565b611edd816126c0565b840191505092915050565b6000611ef382612470565b611efd81856124d9565b9350611f0d818560208601612585565b80840191505092915050565b6000611f266028836124c8565b91507f446f6e6174696f6e20616d6f756e742073686f756c642062652067726561746560008301527f72207468616e20300000000000000000000000000000000000000000000000006020830152604082019050919050565b6000611f8c6013836124c8565b91507f4e6f7468696e6720746f207769746864726177000000000000000000000000006000830152602082019050919050565b6000611fcc6021836124c8565b91507f4f6e6c79206f776e65722063616e2063616c6c20746869732066756e6374696f60008301527f6e000000000000000000000000000000000000000000000000000000000000006020830152604082019050919050565b60006120326021836124c8565b91507f4f6e6c79206f776e65722063616e20757064617465206c697374696e6720666560008301527f65000000000000000000000000000000000000000000000000000000000000006020830152604082019050919050565b6060820160008201516120a160008501826121a0565b5060208201516120b46020850182611d85565b5060408201516120c760408501826121a0565b50505050565b6000610100830160008301516120e660008601826121a0565b5060208301516120f96020860182611d85565b50604083015184820360408601526121118282611e76565b9150506060830151848203606086015261212b8282611e76565b915050608083015184820360808601526121458282611e76565b91505060a083015184820360a086015261215f8282611e76565b91505060c083015184820360c08601526121798282611e76565b91505060e083015184820360e08601526121938282611e76565b9150508091505092915050565b6121a98161256c565b82525050565b6121b88161256c565b82525050565b60006121ca8284611ee8565b915081905092915050565b600060208201905081810360008301526121ef8184611da3565b905092915050565b600060208201905081810360008301526122118184611e01565b905092915050565b6000602082019050818103600083015261223281611f19565b9050919050565b6000602082019050818103600083015261225281611f7f565b9050919050565b6000602082019050818103600083015261227281611fbf565b9050919050565b6000602082019050818103600083015261229281612025565b9050919050565b60006020820190506122ae60008301846121af565b92915050565b600060c0820190506122c960008301896121af565b6122d66020830188611d94565b81810360408301526122e88187611eaf565b905081810360608301526122fc8186611eaf565b905081810360808301526123108185611eaf565b905081810360a08301526123248184611eaf565b9050979650505050505050565b600061010082019050612347600083018b6121af565b612354602083018a611d94565b81810360408301526123668189611eaf565b9050818103606083015261237a8188611eaf565b9050818103608083015261238e8187611eaf565b905081810360a08301526123a28186611eaf565b905081810360c08301526123b68185611eaf565b905081810360e08301526123ca8184611eaf565b90509998505050505050505050565b6000604051905081810181811067ffffffffffffffff82111715612400576123ff612691565b5b8060405250919050565b600067ffffffffffffffff82111561242557612424612691565b5b601f19601f8301169050602081019050919050565b6000819050602082019050919050565b6000819050602082019050919050565b600081519050919050565b600081519050919050565b600081519050919050565b6000602082019050919050565b6000602082019050919050565b600082825260208201905092915050565b600082825260208201905092915050565b600082825260208201905092915050565b600082825260208201905092915050565b600081905092915050565b60006124ef8261256c565b91506124fa8361256c565b9250827fffffffffffffffffffffffffffffffffffffffffffffffffffffffffffffffff0382111561252f5761252e612633565b5b828201905092915050565b60006125458261254c565b9050919050565b600073ffffffffffffffffffffffffffffffffffffffff82169050919050565b6000819050919050565b82818337600083830152505050565b60005b838110156125a3578082015181840152602081019050612588565b838111156125b2576000848401525b50505050565b600060028204905060018216806125d057607f821691505b602082108114156125e4576125e3612662565b5b50919050565b60006125f58261256c565b91507fffffffffffffffffffffffffffffffffffffffffffffffffffffffffffffffff82141561262857612627612633565b5b600182019050919050565b7f4e487b7100000000000000000000000000000000000000000000000000000000600052601160045260246000fd5b7f4e487b7100000000000000000000000000000000000000000000000000000000600052602260045260246000fd5b7f4e487b7100000000000000000000000000000000000000000000000000000000600052604160045260246000fd5b6000601f19601f8301169050919050565b6126da8161253a565b81146126e557600080fd5b50565b6126f18161256c565b81146126fc57600080fd5b5056fea26469706673582212200c57b5f1cfc4e3622560c74f8b706f7430f78a2a582f7416167366e3bbe74c0064736f6c63430008000033",
  "immutableReferences": {},
  "source": "// SPDX-License-Identifier: MIT\r\npragma solidity ^0.8.0;\r\n\r\ncontract LookUpContract {\r\n    struct ERC20Token {\r\n        uint256 tokenID;\r\n        address owner;\r\n        string tokenSupply;\r\n        string tokenName;\r\n        string tokenSymbol;\r\n        string tokenAddress;\r\n        string tokenTransactionHash;\r\n        string tokenCreatedDate;\r\n    }\r\n\r\n    struct Donation {\r\n        uint256 donationID;\r\n        address donor;\r\n        uint256 fund;\r\n    }\r\n\r\n    address payable contractOwner =\r\n        payable(0x93cE56E359DFE0e0452816CA742853F96F2Ee0bA);\r\n\r\n    uint256 public listingPrice = 0.025 ether;\r\n\r\n    mapping(uint256 => ERC20Token) private erc20Tokens;\r\n    mapping(uint256 => Donation) private donations;\r\n\r\n    uint256 public _tokenIndex;\r\n    uint256 public _donationIndex;\r\n\r\n    event DonationReceived(address indexed donor, uint256 amount);\r\n    event ERC20TokenListed(\r\n        uint256 indexed id,\r\n        address indexed owner,\r\n        string indexed token\r\n    );\r\n\r\n    modifier onlyOwner() {\r\n        require(\r\n            msg.sender == contractOwner,\r\n            \"Only owner can call this function\"\r\n        );\r\n        _;\r\n    }\r\n\r\n    //funtion to create ERC20 token\r\n    function createERC20Token(\r\n        address _owner,\r\n        string memory _tokenSupply,\r\n        string memory _tokenName,\r\n        string memory _tokenSymbol,\r\n        string memory _tokenAddress,\r\n        string memory _tokenTransactionHash,\r\n        string memory _tokenCreatedDate\r\n    )\r\n        external\r\n        payable\r\n        returns (\r\n            uint256,\r\n            address,\r\n            string memory,\r\n            string memory,\r\n            string memory,\r\n            string memory\r\n        )\r\n    {\r\n        _tokenIndex++;\r\n        uint256 _tokenId = _tokenIndex;\r\n        ERC20Token storage erc20Token = erc20Tokens[_tokenId];\r\n\r\n        erc20Token.tokenID = _tokenId;\r\n        erc20Token.owner = _owner;\r\n        erc20Token.tokenSupply = _tokenSupply;\r\n        erc20Token.tokenName = _tokenName;\r\n        erc20Token.tokenSymbol = _tokenSymbol;\r\n        erc20Token.tokenAddress = _tokenAddress;\r\n        erc20Token.tokenTransactionHash = _tokenTransactionHash;\r\n        erc20Token.tokenCreatedDate = _tokenCreatedDate;\r\n\r\n        emit ERC20TokenListed(_tokenId, _owner, _tokenAddress);\r\n        return (\r\n            _tokenId,\r\n            _owner,\r\n            _tokenName,\r\n            _tokenSymbol,\r\n            _tokenAddress,\r\n            _tokenTransactionHash\r\n        );\r\n    }\r\n\r\n    //funtion to get ERC20 token\r\n    function getERC20TokenListed() public view returns (ERC20Token[] memory) {\r\n        uint256 itemCount = _tokenIndex;\r\n        uint256 currentIndex = 0;\r\n\r\n        ERC20Token[] memory items = new ERC20Token[](itemCount);\r\n\r\n        for (uint256 i = 0; i < itemCount; i++) {\r\n            uint256 currentId = i + 1;\r\n\r\n            ERC20Token storage currentItem = erc20Tokens[currentId];\r\n\r\n            items[currentIndex] = currentItem;\r\n            currentIndex += 1;\r\n        }\r\n        return items;\r\n    }\r\n\r\n    function getERC20Token(\r\n        uint256 _tokenId\r\n    )\r\n        external\r\n        view\r\n        returns (\r\n            uint256,\r\n            address,\r\n            string memory,\r\n            string memory,\r\n            string memory,\r\n            string memory,\r\n            string memory,\r\n            string memory\r\n        )\r\n    {\r\n        ERC20Token memory erc20Token = erc20Tokens[_tokenId];\r\n\r\n        return (\r\n            erc20Token.tokenID,\r\n            erc20Token.owner,\r\n            erc20Token.tokenName,\r\n            erc20Token.tokenSupply,\r\n            erc20Token.tokenSymbol,\r\n            erc20Token.tokenAddress,\r\n            erc20Token.tokenTransactionHash,\r\n            erc20Token.tokenCreatedDate\r\n        );\r\n    }\r\n\r\n    function getUserERC20Tokens(\r\n        address _user\r\n    ) external view returns (ERC20Token[] memory) {\r\n        uint256 totalItemCount = _tokenIndex;\r\n        uint256 itemCount = 0;\r\n        uint256 currentIndex = 0;\r\n\r\n        for (uint256 i = 0; i < totalItemCount; i++) {\r\n            if (erc20Tokens[i + 1].owner == _user) {\r\n                itemCount += 1;\r\n            }\r\n        }\r\n\r\n        ERC20Token[] memory items = new ERC20Token[](itemCount);\r\n        for (uint256 i = 0; i < totalItemCount; i++) {\r\n            if (erc20Tokens[i + 1].owner == _user) {\r\n                uint256 currentId = i + 1;\r\n\r\n                ERC20Token storage currentItem = erc20Tokens[currentId];\r\n                items[currentIndex] = currentItem;\r\n                currentIndex += 1;\r\n            }\r\n        }\r\n        return items;\r\n    }\r\n\r\n    function getERC20TokenListingPrice() public view returns (uint256) {\r\n        return listingPrice;\r\n    }\r\n\r\n    function updateListingPrice(\r\n        uint256 _listingPrice,\r\n        address owner\r\n    ) public payable onlyOwner {\r\n        require(contractOwner == owner, \"Only owner can update listing fee\");\r\n        listingPrice = _listingPrice;\r\n    }\r\n\r\n    function withdraw() external onlyOwner {\r\n        uint256 balance = address(this).balance;\r\n        require(balance > 0, \"Nothing to withdraw\");\r\n\r\n        payable(contractOwner).transfer(balance);\r\n    }\r\n\r\n    function getContractBalance() external view onlyOwner returns (uint256) {\r\n        uint256 balance = address(this).balance;\r\n        return balance;\r\n    }\r\n\r\n    function donate() external payable {\r\n        require(msg.value >= 0, \"Donation amount should be greater than 0\");\r\n\r\n        _donationIndex++;\r\n\r\n        uint256 _donationId = _donationIndex;\r\n        Donation storage donation = donations[_donationId];\r\n\r\n        donation.donationID = _donationId;\r\n        donation.donor = msg.sender;\r\n        donation.fund = msg.value;\r\n\r\n        emit DonationReceived(msg.sender, msg.value);\r\n    }\r\n\r\n    function getAllDonation() external view returns (Donation[] memory) {\r\n        uint256 itemCount = _donationIndex;\r\n        uint256 currentIndex = 0;\r\n        Donation[] memory items = new Donation[](itemCount);\r\n\r\n        for (uint256 i = 0; i < itemCount; i++) {\r\n            uint256 currentId = i + 1;\r\n\r\n            Donation storage currentItem = donations[currentId];\r\n\r\n            items[currentIndex] = currentItem;\r\n            currentIndex += 1;\r\n        }\r\n        return items;\r\n    }\r\n}\r\n",
  "sourcePath": "C:\\Users\\ugyen\\OneDrive\\Desktop\\sassly\\contracts\\LookUpContract.sol",
  "compiler": {
    "name": "solc",
    "version": "0.8.0+commit.c7dfd78e.Emscripten.clang"
  },
  "schemaVersion": "3.4.16",
  "updatedAt": "2024-11-06T22:04:31.400Z",
  "networkType": "ethereum",
  "devdoc": {
    "kind": "dev",
    "methods": {},
    "version": 1
  },
  "userdoc": {
    "kind": "user",
    "methods": {},
    "version": 1
  }
}